:1000000019C028C027C0AAC025C025C023C022C04F
:1000100021C020C01FC01EC01DC01CC01BC01AC0F4
:1000200019C018C017C016C015C014C013C012C024
:1000300011C010C011241FBECFEFD2E0DEBFCDBF74
:1000400021E0A0E0B1E001C01D92A430B207E1F7C9
:100050001FD1C3C1D5CF1F920F920FB60F9211249B
:100060002F933F934F935F936F937F938F939F93C0
:10007000AF93BF93EF93FF9380918100882309F49E
:100080005CC08FE79EE30197F1F700C00000D89AAB
:1000900099B189B193FB442740F950E084FB2227B2
:1000A00020F930E04217530729F560910201709161
:1000B0000301643B710508F040C06F5F7F4F709390
:1000C00003016093020189EA9BEA89D161507109B9
:1000D000E8E8F0E07183608320918400309185002E
:1000E000808191818217930740F5109285001092CC
:1000F000840023C060910201709103016230710598
:10010000E0F061507109709303016093020189EA84
:100110009BEA65D161507109E8E8F0E07183608382
:10012000209184003091850080819181821793070E
:1001300020F41092850010928400FF91EF91BF91FE
:10014000AF919F918F917F916F915F914F913F916F
:100150002F910F900FBE0F901F9018951F920F9226
:100160000FB60F921124AF92BF92CF92DF92EF920F
:10017000FF920F931F932F933F934F935F936F9330
:100180007F938F939F93AF93BF93CF93DF93EF931F
:10019000FF9385B5882309F460C08FE79EE301973C
:1001A000F1F700C00000D89A93B183B1492F417094
:1001B00050E081FB222720F930E04217530739F540
:1001C000809100019091010180342FE1920708F0A5
:1001D00044C08C599F4F9093010180930001A82E39
:1001E000B92EC12CD12CE12CF12C00E010E02AE535
:1001F00032E642E060E070E080E090E006D121501D
:1002000027BD97B586B5891740F516BC26C08091E5
:10021000000190910101813223E09207F0F08456B1
:1002200091099093010180930001A82EB92EC12C51
:10023000D12CE12CF12C00E010E02AE532E642E07E
:1002400050E060E070E080E090E0DFD0215027BD1A
:1002500097B586B5891708F416BCFF91EF91DF9129
:10026000CF91BF91AF919F918F917F916F915F914E
:100270004F913F912F911F910F91FF90EF90DF9041
:10028000CF90BF90AF900F900FBE0F901F9018951A
:10029000229A559A3B9A569A8AB183608AB98BB151
:1002A00083608BB95A9A5B9A5C9A5F9A289A299ACA
:1002B000EDE6F0E0808188608083EBE6F0E080810D
:1002C0008160808385E0809368008BBB84E190E04F
:1002D0009093030180930201E8E8F0E084E998E05C
:1002E0009183808320918400309185008081918169
:1002F0008217930720F4109285001092840080E208
:1003000093E0909301018093000182EC87BD97B543
:1003100086B5891708F416BC8CE080938100E0E86C
:10032000F0E080818061808382E084BD85E085BDCE
:1003300084B5806184BD7894E1E8F0E09CE0A0E8B9
:10034000B0E042E035E020E04A991EC0CFE7DEE3AE
:100350002197F1F700C000004A9916C080818823D8
:1003600029F010828C918F7E8C9304C090838C91A5
:1003700080618C934A9908C0CFE7DEE32197F1F7BB
:1003800000C000004A9BF6CF4F99DECFCFE7DEE3F7
:100390002197F1F700C000004F99D6CF85B588238B
:1003A00029F015BC84B58F7E84BD05C044BD35BD24
:1003B00084B5806184BD4F990CC0CFE7DEE32197FF
:1003C000F1F700C0000089B18095881F8827881F39
:1003D00001C0822F8111EFCFB7CFF89460C0AA1B64
:1003E000BB1B51E107C0AA1FBB1FA617B70710F020
:1003F000A61BB70B881F991F5A95A9F78095909552
:10040000BC01CD010895689401C0E8948F929F9239
:10041000CF93DF9305D0DF91CF919F908F90089578
:1004200088249924F401E401B0E41B2ED4019D1525
:100430008E049F04E007F10738F4FC014B01CA0168
:10044000B901AD019E011694220F331F441F551FA1
:10045000661F771F881F991F881C991CEE1FFF1F9E
:10046000CC1FDD1FAA1FBB1F8A149B04EC05FD05D2
:10047000CE05DF05A007B10748F08A189B08EC09F4
:10048000FD09CE09DF09A00BB10B21601A94E1F63A
:100490002EF49401AF01BE01CD01000C0895F89433
:0204A000FFCF8C
:00000001FF
